{
  "_format": "hh-sol-artifact-1",
  "contractName": "BreedingNFT",
  "sourceName": "contracts/BreedingNFT.sol",
  "abi": [
    {
      "inputs": [],
      "stateMutability": "nonpayable",
      "type": "constructor"
    },
    {
      "anonymous": false,
      "inputs": [
        {
          "indexed": true,
          "internalType": "address",
          "name": "owner",
          "type": "address"
        },
        {
          "indexed": true,
          "internalType": "address",
          "name": "approved",
          "type": "address"
        },
        {
          "indexed": true,
          "internalType": "uint256",
          "name": "tokenId",
          "type": "uint256"
        }
      ],
      "name": "Approval",
      "type": "event"
    },
    {
      "anonymous": false,
      "inputs": [
        {
          "indexed": true,
          "internalType": "address",
          "name": "owner",
          "type": "address"
        },
        {
          "indexed": true,
          "internalType": "address",
          "name": "operator",
          "type": "address"
        },
        {
          "indexed": false,
          "internalType": "bool",
          "name": "approved",
          "type": "bool"
        }
      ],
      "name": "ApprovalForAll",
      "type": "event"
    },
    {
      "anonymous": false,
      "inputs": [
        {
          "indexed": false,
          "internalType": "address",
          "name": "base_uri",
          "type": "address"
        }
      ],
      "name": "NewBaseURI",
      "type": "event"
    },
    {
      "anonymous": false,
      "inputs": [
        {
          "indexed": true,
          "internalType": "address",
          "name": "previousOwner",
          "type": "address"
        },
        {
          "indexed": true,
          "internalType": "address",
          "name": "newOwner",
          "type": "address"
        }
      ],
      "name": "OwnershipTransferred",
      "type": "event"
    },
    {
      "anonymous": false,
      "inputs": [
        {
          "indexed": true,
          "internalType": "address",
          "name": "from",
          "type": "address"
        },
        {
          "indexed": true,
          "internalType": "address",
          "name": "to",
          "type": "address"
        },
        {
          "indexed": true,
          "internalType": "uint256",
          "name": "tokenId",
          "type": "uint256"
        }
      ],
      "name": "Transfer",
      "type": "event"
    },
    {
      "inputs": [
        {
          "internalType": "uint256",
          "name": "",
          "type": "uint256"
        }
      ],
      "name": "NFTs",
      "outputs": [
        {
          "internalType": "uint256",
          "name": "tokenId",
          "type": "uint256"
        },
        {
          "internalType": "string",
          "name": "tokenURI",
          "type": "string"
        },
        {
          "internalType": "uint256",
          "name": "price",
          "type": "uint256"
        },
        {
          "internalType": "uint256",
          "name": "pi",
          "type": "uint256"
        },
        {
          "internalType": "bool",
          "name": "sale",
          "type": "bool"
        }
      ],
      "stateMutability": "view",
      "type": "function"
    },
    {
      "inputs": [
        {
          "internalType": "address",
          "name": "to",
          "type": "address"
        },
        {
          "internalType": "uint256",
          "name": "tokenId",
          "type": "uint256"
        }
      ],
      "name": "approve",
      "outputs": [],
      "stateMutability": "nonpayable",
      "type": "function"
    },
    {
      "inputs": [
        {
          "internalType": "address",
          "name": "owner",
          "type": "address"
        }
      ],
      "name": "balanceOf",
      "outputs": [
        {
          "internalType": "uint256",
          "name": "",
          "type": "uint256"
        }
      ],
      "stateMutability": "view",
      "type": "function"
    },
    {
      "inputs": [
        {
          "internalType": "uint256",
          "name": "tokenId",
          "type": "uint256"
        },
        {
          "internalType": "uint256",
          "name": "price",
          "type": "uint256"
        }
      ],
      "name": "buyNFT",
      "outputs": [],
      "stateMutability": "nonpayable",
      "type": "function"
    },
    {
      "inputs": [],
      "name": "creatorAddress",
      "outputs": [
        {
          "internalType": "address",
          "name": "",
          "type": "address"
        }
      ],
      "stateMutability": "view",
      "type": "function"
    },
    {
      "inputs": [
        {
          "internalType": "uint256",
          "name": "tokenId",
          "type": "uint256"
        }
      ],
      "name": "getApproved",
      "outputs": [
        {
          "internalType": "address",
          "name": "",
          "type": "address"
        }
      ],
      "stateMutability": "view",
      "type": "function"
    },
    {
      "inputs": [
        {
          "internalType": "uint256",
          "name": "_tokenId",
          "type": "uint256"
        }
      ],
      "name": "getNFT",
      "outputs": [
        {
          "internalType": "bool",
          "name": "",
          "type": "bool"
        },
        {
          "internalType": "string",
          "name": "",
          "type": "string"
        },
        {
          "internalType": "uint256",
          "name": "",
          "type": "uint256"
        }
      ],
      "stateMutability": "view",
      "type": "function"
    },
    {
      "inputs": [
        {
          "internalType": "address",
          "name": "owner",
          "type": "address"
        },
        {
          "internalType": "address",
          "name": "operator",
          "type": "address"
        }
      ],
      "name": "isApprovedForAll",
      "outputs": [
        {
          "internalType": "bool",
          "name": "",
          "type": "bool"
        }
      ],
      "stateMutability": "view",
      "type": "function"
    },
    {
      "inputs": [
        {
          "internalType": "address",
          "name": "recipient",
          "type": "address"
        },
        {
          "internalType": "string",
          "name": "tokenURI",
          "type": "string"
        },
        {
          "internalType": "uint256",
          "name": "price",
          "type": "uint256"
        },
        {
          "internalType": "uint256",
          "name": "pi",
          "type": "uint256"
        }
      ],
      "name": "mintNFT",
      "outputs": [],
      "stateMutability": "nonpayable",
      "type": "function"
    },
    {
      "inputs": [],
      "name": "name",
      "outputs": [
        {
          "internalType": "string",
          "name": "",
          "type": "string"
        }
      ],
      "stateMutability": "view",
      "type": "function"
    },
    {
      "inputs": [],
      "name": "owner",
      "outputs": [
        {
          "internalType": "address",
          "name": "",
          "type": "address"
        }
      ],
      "stateMutability": "view",
      "type": "function"
    },
    {
      "inputs": [
        {
          "internalType": "uint256",
          "name": "tokenId",
          "type": "uint256"
        }
      ],
      "name": "ownerOf",
      "outputs": [
        {
          "internalType": "address",
          "name": "",
          "type": "address"
        }
      ],
      "stateMutability": "view",
      "type": "function"
    },
    {
      "inputs": [],
      "name": "renounceOwnership",
      "outputs": [],
      "stateMutability": "nonpayable",
      "type": "function"
    },
    {
      "inputs": [
        {
          "internalType": "uint256",
          "name": "tokenId",
          "type": "uint256"
        }
      ],
      "name": "resellNFT",
      "outputs": [],
      "stateMutability": "nonpayable",
      "type": "function"
    },
    {
      "inputs": [
        {
          "internalType": "address",
          "name": "from",
          "type": "address"
        },
        {
          "internalType": "address",
          "name": "to",
          "type": "address"
        },
        {
          "internalType": "uint256",
          "name": "tokenId",
          "type": "uint256"
        }
      ],
      "name": "safeTransferFrom",
      "outputs": [],
      "stateMutability": "nonpayable",
      "type": "function"
    },
    {
      "inputs": [
        {
          "internalType": "address",
          "name": "from",
          "type": "address"
        },
        {
          "internalType": "address",
          "name": "to",
          "type": "address"
        },
        {
          "internalType": "uint256",
          "name": "tokenId",
          "type": "uint256"
        },
        {
          "internalType": "bytes",
          "name": "_data",
          "type": "bytes"
        }
      ],
      "name": "safeTransferFrom",
      "outputs": [],
      "stateMutability": "nonpayable",
      "type": "function"
    },
    {
      "inputs": [
        {
          "internalType": "address",
          "name": "operator",
          "type": "address"
        },
        {
          "internalType": "bool",
          "name": "approved",
          "type": "bool"
        }
      ],
      "name": "setApprovalForAll",
      "outputs": [],
      "stateMutability": "nonpayable",
      "type": "function"
    },
    {
      "inputs": [
        {
          "internalType": "bytes4",
          "name": "interfaceId",
          "type": "bytes4"
        }
      ],
      "name": "supportsInterface",
      "outputs": [
        {
          "internalType": "bool",
          "name": "",
          "type": "bool"
        }
      ],
      "stateMutability": "view",
      "type": "function"
    },
    {
      "inputs": [],
      "name": "symbol",
      "outputs": [
        {
          "internalType": "string",
          "name": "",
          "type": "string"
        }
      ],
      "stateMutability": "view",
      "type": "function"
    },
    {
      "inputs": [
        {
          "internalType": "uint256",
          "name": "index",
          "type": "uint256"
        }
      ],
      "name": "tokenByIndex",
      "outputs": [
        {
          "internalType": "uint256",
          "name": "",
          "type": "uint256"
        }
      ],
      "stateMutability": "view",
      "type": "function"
    },
    {
      "inputs": [
        {
          "internalType": "address",
          "name": "owner",
          "type": "address"
        },
        {
          "internalType": "uint256",
          "name": "index",
          "type": "uint256"
        }
      ],
      "name": "tokenOfOwnerByIndex",
      "outputs": [
        {
          "internalType": "uint256",
          "name": "",
          "type": "uint256"
        }
      ],
      "stateMutability": "view",
      "type": "function"
    },
    {
      "inputs": [
        {
          "internalType": "uint256",
          "name": "tokenId",
          "type": "uint256"
        }
      ],
      "name": "tokenURI",
      "outputs": [
        {
          "internalType": "string",
          "name": "",
          "type": "string"
        }
      ],
      "stateMutability": "view",
      "type": "function"
    },
    {
      "inputs": [
        {
          "internalType": "address",
          "name": "_owner",
          "type": "address"
        }
      ],
      "name": "tokensOfOwner",
      "outputs": [
        {
          "internalType": "uint256[]",
          "name": "",
          "type": "uint256[]"
        }
      ],
      "stateMutability": "view",
      "type": "function"
    },
    {
      "inputs": [],
      "name": "totalMint",
      "outputs": [
        {
          "internalType": "uint256",
          "name": "",
          "type": "uint256"
        }
      ],
      "stateMutability": "view",
      "type": "function"
    },
    {
      "inputs": [],
      "name": "totalSupply",
      "outputs": [
        {
          "internalType": "uint256",
          "name": "",
          "type": "uint256"
        }
      ],
      "stateMutability": "view",
      "type": "function"
    },
    {
      "inputs": [
        {
          "internalType": "address",
          "name": "from",
          "type": "address"
        },
        {
          "internalType": "address",
          "name": "to",
          "type": "address"
        },
        {
          "internalType": "uint256",
          "name": "tokenId",
          "type": "uint256"
        }
      ],
      "name": "transferFrom",
      "outputs": [],
      "stateMutability": "nonpayable",
      "type": "function"
    },
    {
      "inputs": [
        {
          "internalType": "address",
          "name": "newOwner",
          "type": "address"
        }
      ],
      "name": "transferOwnership",
      "outputs": [],
      "stateMutability": "nonpayable",
      "type": "function"
    },
    {
      "inputs": [],
      "name": "withdrawAll",
      "outputs": [],
      "stateMutability": "payable",
      "type": "function"
    }
  ],
  "bytecode": "0x6080604052600c80546001600160a01b031990811673e9e7cea3dedca5984780bafc599bd69add087d56908117909255600d8054821673b0d0edb26b7728b97ef6726dac6fb7a43d6043e1908117909155600e80548316909317909255600f805482169092179091556010805490911673a0b073be8799a742407ab04ec02b2bfd860a1b711790553480156200009457600080fd5b50604080518082018252600b81526a109c9959591a5b99d3919560aa1b60208083019182528351808501909452600384526210939560ea1b908401528151919291620000e39160009162000172565b508051620000f990600190602084019062000172565b50505062000116620001106200011c60201b60201c565b62000120565b62000255565b3390565b600a80546001600160a01b038381166001600160a01b0319831681179093556040519116919082907f8be0079c531659141344cd1fd0a4f28419497f9722a3daafe3b4186f6b6457e090600090a35050565b828054620001809062000218565b90600052602060002090601f016020900481019282620001a45760008555620001ef565b82601f10620001bf57805160ff1916838001178555620001ef565b82800160010185558215620001ef579182015b82811115620001ef578251825591602001919060010190620001d2565b50620001fd92915062000201565b5090565b5b80821115620001fd576000815560010162000202565b600181811c908216806200022d57607f821691505b602082108114156200024f57634e487b7160e01b600052602260045260246000fd5b50919050565b61265280620002656000396000f3fe6080604052600436106101b75760003560e01c8063715018a6116100ec578063a22cb4651161008a578063c87b56dd11610064578063c87b56dd146104de578063e927fc5c146104fe578063e985e9c51461051e578063f2fde38b1461056757600080fd5b8063a22cb4651461046d578063a3c0b95b1461048d578063b88d4fde146104be57600080fd5b8063853828b6116100c6578063853828b614610412578063859a818b1461041a5780638da5cb5b1461043a57806395d89b411461045857600080fd5b8063715018a6146103b057806371c89c40146103c55780638462151c146103e557600080fd5b80632f745c5911610159578063576f7ea711610133578063576f7ea71461032c57806359a7715a1461035b5780636352211e1461037057806370a082311461039057600080fd5b80632f745c59146102cc57806342842e0e146102ec5780634f6ccce71461030c57600080fd5b8063095ea7b311610195578063095ea7b31461024b57806318160ddd1461026d5780631d85bf031461028c57806323b872dd146102ac57600080fd5b806301ffc9a7146101bc57806306fdde03146101f1578063081812fc14610213575b600080fd5b3480156101c857600080fd5b506101dc6101d7366004611f68565b610587565b60405190151581526020015b60405180910390f35b3480156101fd57600080fd5b506102066105b2565b6040516101e89190611fdd565b34801561021f57600080fd5b5061023361022e366004611ff0565b610644565b6040516001600160a01b0390911681526020016101e8565b34801561025757600080fd5b5061026b610266366004612025565b6106de565b005b34801561027957600080fd5b506008545b6040519081526020016101e8565b34801561029857600080fd5b5061026b6102a736600461204f565b6107f4565b3480156102b857600080fd5b5061026b6102c7366004612071565b610aac565b3480156102d857600080fd5b5061027e6102e7366004612025565b610add565b3480156102f857600080fd5b5061026b610307366004612071565b610b73565b34801561031857600080fd5b5061027e610327366004611ff0565b610b8e565b34801561033857600080fd5b5061034c610347366004611ff0565b610c21565b6040516101e8939291906120ad565b34801561036757600080fd5b5061027e610ce2565b34801561037c57600080fd5b5061023361038b366004611ff0565b610cf1565b34801561039c57600080fd5b5061027e6103ab3660046120d8565b610d68565b3480156103bc57600080fd5b5061026b610def565b3480156103d157600080fd5b5061026b6103e0366004611ff0565b610e25565b3480156103f157600080fd5b506104056104003660046120d8565b610e94565b6040516101e891906120f3565b61026b610f36565b34801561042657600080fd5b5061026b6104353660046121c3565b610f84565b34801561044657600080fd5b50600a546001600160a01b0316610233565b34801561046457600080fd5b506102066110fd565b34801561047957600080fd5b5061026b610488366004612243565b61110c565b34801561049957600080fd5b506104ad6104a8366004611ff0565b61111b565b6040516101e895949392919061227a565b3480156104ca57600080fd5b5061026b6104d93660046122b2565b6111d7565b3480156104ea57600080fd5b506102066104f9366004611ff0565b611209565b34801561050a57600080fd5b50601054610233906001600160a01b031681565b34801561052a57600080fd5b506101dc61053936600461232e565b6001600160a01b03918216600090815260056020908152604080832093909416825291909152205460ff1690565b34801561057357600080fd5b5061026b6105823660046120d8565b6112f1565b60006001600160e01b0319821663780e9d6360e01b14806105ac57506105ac82611389565b92915050565b6060600080546105c190612361565b80601f01602080910402602001604051908101604052809291908181526020018280546105ed90612361565b801561063a5780601f1061060f5761010080835404028352916020019161063a565b820191906000526020600020905b81548152906001019060200180831161061d57829003601f168201915b5050505050905090565b6000818152600260205260408120546001600160a01b03166106c25760405162461bcd60e51b815260206004820152602c60248201527f4552433732313a20617070726f76656420717565727920666f72206e6f6e657860448201526b34b9ba32b73a103a37b5b2b760a11b60648201526084015b60405180910390fd5b506000908152600460205260409020546001600160a01b031690565b60006106e982610cf1565b9050806001600160a01b0316836001600160a01b031614156107575760405162461bcd60e51b815260206004820152602160248201527f4552433732313a20617070726f76616c20746f2063757272656e74206f776e656044820152603960f91b60648201526084016106b9565b336001600160a01b038216148061077357506107738133610539565b6107e55760405162461bcd60e51b815260206004820152603860248201527f4552433732313a20617070726f76652063616c6c6572206973206e6f74206f7760448201527f6e6572206e6f7220617070726f76656420666f7220616c6c000000000000000060648201526084016106b9565b6107ef83836113d9565b505050565b60006107ff83610cf1565b90506001600160a01b0381163314156108515760405162461bcd60e51b8152602060048201526014602482015273125d081a5cc81cdd1a5b1b081e5bdd5c8813919560621b60448201526064016106b9565b61086382670de0b6b3a76400006123b2565b600f546040516370a0823160e01b81523360048201526001600160a01b03909116906370a0823190602401602060405180830381865afa1580156108ab573d6000803e3d6000fd5b505050506040513d601f19601f820116820180604052508101906108cf91906123d1565b116109115760405162461bcd60e51b8152602060048201526012602482015271496e737566696369656e742066756e64732160701b60448201526064016106b9565b61091c813385611447565b600f546010546001600160a01b03918216916323b872dd9133911660646109448760036123b2565b61094e9190612400565b61096090670de0b6b3a76400006123b2565b6040516001600160e01b031960e086901b1681526001600160a01b03938416600482015292909116602483015260448201526064016020604051808303816000875af11580156109b4573d6000803e3d6000fd5b505050506040513d601f19601f820116820180604052508101906109d89190612414565b506000838152601160205260409020600401805460ff19169055600f546001600160a01b03166323b872dd33836064610a128760616123b2565b610a1c9190612400565b610a2e90670de0b6b3a76400006123b2565b6040516001600160e01b031960e086901b1681526001600160a01b03938416600482015292909116602483015260448201526064016020604051808303816000875af1158015610a82573d6000803e3d6000fd5b505050506040513d601f19601f82011682018060405250810190610aa69190612414565b50505050565b610ab633826115ee565b610ad25760405162461bcd60e51b81526004016106b990612431565b6107ef838383611447565b6000610ae883610d68565b8210610b4a5760405162461bcd60e51b815260206004820152602b60248201527f455243373231456e756d657261626c653a206f776e657220696e646578206f7560448201526a74206f6620626f756e647360a81b60648201526084016106b9565b506001600160a01b03919091166000908152600660209081526040808320938352929052205490565b6107ef838383604051806020016040528060008152506111d7565b6000610b9960085490565b8210610bfc5760405162461bcd60e51b815260206004820152602c60248201527f455243373231456e756d657261626c653a20676c6f62616c20696e646578206f60448201526b7574206f6620626f756e647360a01b60648201526084016106b9565b60088281548110610c0f57610c0f612482565b90600052602060002001549050919050565b60008181526011602052604081206004810154600282015460019092018054606093859360ff1692918290610c5590612361565b80601f0160208091040260200160405190810160405280929190818152602001828054610c8190612361565b8015610cce5780601f10610ca357610100808354040283529160200191610cce565b820191906000526020600020905b815481529060010190602001808311610cb157829003601f168201915b505050505091509250925092509193909250565b6000610cec6116e5565b905090565b6000818152600260205260408120546001600160a01b0316806105ac5760405162461bcd60e51b815260206004820152602960248201527f4552433732313a206f776e657220717565727920666f72206e6f6e657869737460448201526832b73a103a37b5b2b760b91b60648201526084016106b9565b60006001600160a01b038216610dd35760405162461bcd60e51b815260206004820152602a60248201527f4552433732313a2062616c616e636520717565727920666f7220746865207a65604482015269726f206164647265737360b01b60648201526084016106b9565b506001600160a01b031660009081526003602052604090205490565b600a546001600160a01b03163314610e195760405162461bcd60e51b81526004016106b990612498565b610e2360006116f0565b565b600081815260116020526040902060048101805460ff191660011790556003810154600290910154606491610e59916123b2565b610e639190612400565b600082815260116020526040902060020154610e7f91906124cd565b60009182526011602052604090912060020155565b60606000610ea183610d68565b905060008167ffffffffffffffff811115610ebe57610ebe612137565b604051908082528060200260200182016040528015610ee7578160200160208202803683370190505b50905060005b82811015610f2e57610eff8582610add565b828281518110610f1157610f11612482565b602090810291909101015280610f26816124e5565b915050610eed565b509392505050565b600a546001600160a01b03163314610f605760405162461bcd60e51b81526004016106b990612498565b4780610f6b57600080fd5b601054610f81906001600160a01b031647611742565b50565b600a546001600160a01b03163314610fae5760405162461bcd60e51b81526004016106b990612498565b610fbc600b80546001019055565b600f546001600160a01b03166323b872dd3330610fe186670de0b6b3a76400006123b2565b6040516001600160e01b031960e086901b1681526001600160a01b03938416600482015292909116602483015260448201526064016020604051808303816000875af1158015611035573d6000803e3d6000fd5b505050506040513d601f19601f820116820180604052508101906110599190612414565b506000611065600b5490565b905061107185826117d8565b6040805160a081018252828152602080820187815282840187905260608301869052600160808401819052600086815260118452949094208351815590518051939491936110c793928501929190910190611eb9565b5060408201516002820155606082015160038201556080909101516004909101805460ff19169115159190911790555050505050565b6060600180546105c190612361565b6111173383836117f2565b5050565b6011602052600090815260409020805460018201805491929161113d90612361565b80601f016020809104026020016040519081016040528092919081815260200182805461116990612361565b80156111b65780601f1061118b576101008083540402835291602001916111b6565b820191906000526020600020905b81548152906001019060200180831161119957829003601f168201915b50505050600283015460038401546004909401549293909290915060ff1685565b6111e133836115ee565b6111fd5760405162461bcd60e51b81526004016106b990612431565b610aa6848484846118c1565b6000818152600260205260409020546060906001600160a01b03166112885760405162461bcd60e51b815260206004820152602f60248201527f4552433732314d657461646174613a2055524920717565727920666f72206e6f60448201526e3732bc34b9ba32b73a103a37b5b2b760891b60648201526084016106b9565b600061129f60408051602081019091526000815290565b905060008151116112bf57604051806020016040528060008152506112ea565b806112c9846118f4565b6040516020016112da929190612500565b6040516020818303038152906040525b9392505050565b600a546001600160a01b0316331461131b5760405162461bcd60e51b81526004016106b990612498565b6001600160a01b0381166113805760405162461bcd60e51b815260206004820152602660248201527f4f776e61626c653a206e6577206f776e657220697320746865207a65726f206160448201526564647265737360d01b60648201526084016106b9565b610f81816116f0565b60006001600160e01b031982166380ac58cd60e01b14806113ba57506001600160e01b03198216635b5e139f60e01b145b806105ac57506301ffc9a760e01b6001600160e01b03198316146105ac565b600081815260046020526040902080546001600160a01b0319166001600160a01b038416908117909155819061140e82610cf1565b6001600160a01b03167f8c5be1e5ebec7d5bd14f71427d1e84f3dd0314c0f7b2291e5b200ac8c7c3b92560405160405180910390a45050565b826001600160a01b031661145a82610cf1565b6001600160a01b0316146114be5760405162461bcd60e51b815260206004820152602560248201527f4552433732313a207472616e736665722066726f6d20696e636f72726563742060448201526437bbb732b960d91b60648201526084016106b9565b6001600160a01b0382166115205760405162461bcd60e51b8152602060048201526024808201527f4552433732313a207472616e7366657220746f20746865207a65726f206164646044820152637265737360e01b60648201526084016106b9565b61152b8383836119f2565b6115366000826113d9565b6001600160a01b038316600090815260036020526040812080546001929061155f90849061252f565b90915550506001600160a01b038216600090815260036020526040812080546001929061158d9084906124cd565b909155505060008181526002602052604080822080546001600160a01b0319166001600160a01b0386811691821790925591518493918716917fddf252ad1be2c89b69c2b068fc378daa952ba7f163c4a11628f55a4df523b3ef91a4505050565b6000818152600260205260408120546001600160a01b03166116675760405162461bcd60e51b815260206004820152602c60248201527f4552433732313a206f70657261746f7220717565727920666f72206e6f6e657860448201526b34b9ba32b73a103a37b5b2b760a11b60648201526084016106b9565b600061167283610cf1565b9050806001600160a01b0316846001600160a01b031614806116ad5750836001600160a01b03166116a284610644565b6001600160a01b0316145b806116dd57506001600160a01b0380821660009081526005602090815260408083209388168352929052205460ff165b949350505050565b6000610cec600b5490565b600a80546001600160a01b038381166001600160a01b0319831681179093556040519116919082907f8be0079c531659141344cd1fd0a4f28419497f9722a3daafe3b4186f6b6457e090600090a35050565b6000826001600160a01b03168260405160006040518083038185875af1925050503d806000811461178f576040519150601f19603f3d011682016040523d82523d6000602084013e611794565b606091505b50509050806107ef5760405162461bcd60e51b815260206004820152601060248201526f2a3930b739b332b9103330b4b632b21760811b60448201526064016106b9565b611117828260405180602001604052806000815250611aaa565b816001600160a01b0316836001600160a01b031614156118545760405162461bcd60e51b815260206004820152601960248201527f4552433732313a20617070726f766520746f2063616c6c65720000000000000060448201526064016106b9565b6001600160a01b03838116600081815260056020908152604080832094871680845294825291829020805460ff191686151590811790915591519182527f17307eab39ab6107e8899845ad3d59bd9653f200f220920489ca2b5937696c31910160405180910390a3505050565b6118cc848484611447565b6118d884848484611add565b610aa65760405162461bcd60e51b81526004016106b990612546565b6060816119185750506040805180820190915260018152600360fc1b602082015290565b8160005b8115611942578061192c816124e5565b915061193b9050600a83612400565b915061191c565b60008167ffffffffffffffff81111561195d5761195d612137565b6040519080825280601f01601f191660200182016040528015611987576020820181803683370190505b5090505b84156116dd5761199c60018361252f565b91506119a9600a86612598565b6119b49060306124cd565b60f81b8183815181106119c9576119c9612482565b60200101906001600160f81b031916908160001a9053506119eb600a86612400565b945061198b565b6001600160a01b038316611a4d57611a4881600880546000838152600960205260408120829055600182018355919091527ff3f7a9fe364faab93b216da50a3214154f22a0a2b415b23a84c8169e8b636ee30155565b611a70565b816001600160a01b0316836001600160a01b031614611a7057611a708382611bdb565b6001600160a01b038216611a87576107ef81611c78565b826001600160a01b0316826001600160a01b0316146107ef576107ef8282611d27565b611ab48383611d6b565b611ac16000848484611add565b6107ef5760405162461bcd60e51b81526004016106b990612546565b60006001600160a01b0384163b15611bd057604051630a85bd0160e11b81526001600160a01b0385169063150b7a0290611b219033908990889088906004016125ac565b6020604051808303816000875af1925050508015611b5c575060408051601f3d908101601f19168201909252611b59918101906125e9565b60015b611bb6573d808015611b8a576040519150601f19603f3d011682016040523d82523d6000602084013e611b8f565b606091505b508051611bae5760405162461bcd60e51b81526004016106b990612546565b805181602001fd5b6001600160e01b031916630a85bd0160e11b1490506116dd565b506001949350505050565b60006001611be884610d68565b611bf2919061252f565b600083815260076020526040902054909150808214611c45576001600160a01b03841660009081526006602090815260408083208584528252808320548484528184208190558352600790915290208190555b5060009182526007602090815260408084208490556001600160a01b039094168352600681528383209183525290812055565b600854600090611c8a9060019061252f565b60008381526009602052604081205460088054939450909284908110611cb257611cb2612482565b906000526020600020015490508060088381548110611cd357611cd3612482565b6000918252602080832090910192909255828152600990915260408082208490558582528120556008805480611d0b57611d0b612606565b6001900381819060005260206000200160009055905550505050565b6000611d3283610d68565b6001600160a01b039093166000908152600660209081526040808320868452825280832085905593825260079052919091209190915550565b6001600160a01b038216611dc15760405162461bcd60e51b815260206004820181905260248201527f4552433732313a206d696e7420746f20746865207a65726f206164647265737360448201526064016106b9565b6000818152600260205260409020546001600160a01b031615611e265760405162461bcd60e51b815260206004820152601c60248201527f4552433732313a20746f6b656e20616c7265616479206d696e7465640000000060448201526064016106b9565b611e32600083836119f2565b6001600160a01b0382166000908152600360205260408120805460019290611e5b9084906124cd565b909155505060008181526002602052604080822080546001600160a01b0319166001600160a01b03861690811790915590518392907fddf252ad1be2c89b69c2b068fc378daa952ba7f163c4a11628f55a4df523b3ef908290a45050565b828054611ec590612361565b90600052602060002090601f016020900481019282611ee75760008555611f2d565b82601f10611f0057805160ff1916838001178555611f2d565b82800160010185558215611f2d579182015b82811115611f2d578251825591602001919060010190611f12565b50611f39929150611f3d565b5090565b5b80821115611f395760008155600101611f3e565b6001600160e01b031981168114610f8157600080fd5b600060208284031215611f7a57600080fd5b81356112ea81611f52565b60005b83811015611fa0578181015183820152602001611f88565b83811115610aa65750506000910152565b60008151808452611fc9816020860160208601611f85565b601f01601f19169290920160200192915050565b6020815260006112ea6020830184611fb1565b60006020828403121561200257600080fd5b5035919050565b80356001600160a01b038116811461202057600080fd5b919050565b6000806040838503121561203857600080fd5b61204183612009565b946020939093013593505050565b6000806040838503121561206257600080fd5b50508035926020909101359150565b60008060006060848603121561208657600080fd5b61208f84612009565b925061209d60208501612009565b9150604084013590509250925092565b83151581526060602082015260006120c86060830185611fb1565b9050826040830152949350505050565b6000602082840312156120ea57600080fd5b6112ea82612009565b6020808252825182820181905260009190848201906040850190845b8181101561212b5783518352928401929184019160010161210f565b50909695505050505050565b634e487b7160e01b600052604160045260246000fd5b600067ffffffffffffffff8084111561216857612168612137565b604051601f8501601f19908116603f0116810190828211818310171561219057612190612137565b816040528093508581528686860111156121a957600080fd5b858560208301376000602087830101525050509392505050565b600080600080608085870312156121d957600080fd5b6121e285612009565b9350602085013567ffffffffffffffff8111156121fe57600080fd5b8501601f8101871361220f57600080fd5b61221e8782356020840161214d565b949794965050505060408301359260600135919050565b8015158114610f8157600080fd5b6000806040838503121561225657600080fd5b61225f83612009565b9150602083013561226f81612235565b809150509250929050565b85815260a06020820152600061229360a0830187611fb1565b6040830195909552506060810192909252151560809091015292915050565b600080600080608085870312156122c857600080fd5b6122d185612009565b93506122df60208601612009565b925060408501359150606085013567ffffffffffffffff81111561230257600080fd5b8501601f8101871361231357600080fd5b6123228782356020840161214d565b91505092959194509250565b6000806040838503121561234157600080fd5b61234a83612009565b915061235860208401612009565b90509250929050565b600181811c9082168061237557607f821691505b6020821081141561239657634e487b7160e01b600052602260045260246000fd5b50919050565b634e487b7160e01b600052601160045260246000fd5b60008160001904831182151516156123cc576123cc61239c565b500290565b6000602082840312156123e357600080fd5b5051919050565b634e487b7160e01b600052601260045260246000fd5b60008261240f5761240f6123ea565b500490565b60006020828403121561242657600080fd5b81516112ea81612235565b60208082526031908201527f4552433732313a207472616e736665722063616c6c6572206973206e6f74206f6040820152701ddb995c881b9bdc88185c1c1c9bdd9959607a1b606082015260800190565b634e487b7160e01b600052603260045260246000fd5b6020808252818101527f4f776e61626c653a2063616c6c6572206973206e6f7420746865206f776e6572604082015260600190565b600082198211156124e0576124e061239c565b500190565b60006000198214156124f9576124f961239c565b5060010190565b60008351612512818460208801611f85565b835190830190612526818360208801611f85565b01949350505050565b6000828210156125415761254161239c565b500390565b60208082526032908201527f4552433732313a207472616e7366657220746f206e6f6e20455243373231526560408201527131b2b4bb32b91034b6b83632b6b2b73a32b960711b606082015260800190565b6000826125a7576125a76123ea565b500690565b6001600160a01b03858116825284166020820152604081018390526080606082018190526000906125df90830184611fb1565b9695505050505050565b6000602082840312156125fb57600080fd5b81516112ea81611f52565b634e487b7160e01b600052603160045260246000fdfea26469706673582212208de01d6aa274e1295357c52634f2738ac113f8b4e5bf53d225bca1262b9486ca64736f6c634300080a0033",
  "linkReferences": {},
  "deployedLinkReferences": {}
}